{
  "_format": "hh-sol-artifact-1",
  "contractName": "CatNFTMinter",
  "sourceName": "contracts/cat-nft-minter.sol",
  "abi": [
    {
      "inputs": [],
      "stateMutability": "nonpayable",
      "type": "constructor"
    },
    {
      "anonymous": false,
      "inputs": [
        {
          "indexed": true,
          "internalType": "address",
          "name": "owner",
          "type": "address"
        },
        {
          "indexed": true,
          "internalType": "address",
          "name": "approved",
          "type": "address"
        },
        {
          "indexed": true,
          "internalType": "uint256",
          "name": "tokenId",
          "type": "uint256"
        }
      ],
      "name": "Approval",
      "type": "event"
    },
    {
      "anonymous": false,
      "inputs": [
        {
          "indexed": true,
          "internalType": "address",
          "name": "owner",
          "type": "address"
        },
        {
          "indexed": true,
          "internalType": "address",
          "name": "operator",
          "type": "address"
        },
        {
          "indexed": false,
          "internalType": "bool",
          "name": "approved",
          "type": "bool"
        }
      ],
      "name": "ApprovalForAll",
      "type": "event"
    },
    {
      "anonymous": false,
      "inputs": [
        {
          "indexed": true,
          "internalType": "address",
          "name": "owner",
          "type": "address"
        },
        {
          "indexed": true,
          "internalType": "uint256",
          "name": "tokenId",
          "type": "uint256"
        }
      ],
      "name": "NFTMinted",
      "type": "event"
    },
    {
      "anonymous": false,
      "inputs": [
        {
          "indexed": true,
          "internalType": "address",
          "name": "from",
          "type": "address"
        },
        {
          "indexed": true,
          "internalType": "address",
          "name": "to",
          "type": "address"
        },
        {
          "indexed": true,
          "internalType": "uint256",
          "name": "tokenId",
          "type": "uint256"
        }
      ],
      "name": "Transfer",
      "type": "event"
    },
    {
      "inputs": [
        {
          "internalType": "address",
          "name": "to",
          "type": "address"
        },
        {
          "internalType": "uint256",
          "name": "tokenId",
          "type": "uint256"
        }
      ],
      "name": "approve",
      "outputs": [],
      "stateMutability": "nonpayable",
      "type": "function"
    },
    {
      "inputs": [
        {
          "internalType": "address",
          "name": "owner",
          "type": "address"
        }
      ],
      "name": "balanceOf",
      "outputs": [
        {
          "internalType": "uint256",
          "name": "",
          "type": "uint256"
        }
      ],
      "stateMutability": "view",
      "type": "function"
    },
    {
      "inputs": [],
      "name": "chackNFTMintedCorrectly",
      "outputs": [
        {
          "internalType": "uint256",
          "name": "",
          "type": "uint256"
        }
      ],
      "stateMutability": "view",
      "type": "function"
    },
    {
      "inputs": [
        {
          "internalType": "uint256",
          "name": "tokenId",
          "type": "uint256"
        }
      ],
      "name": "getApproved",
      "outputs": [
        {
          "internalType": "address",
          "name": "",
          "type": "address"
        }
      ],
      "stateMutability": "view",
      "type": "function"
    },
    {
      "inputs": [
        {
          "internalType": "address",
          "name": "owner",
          "type": "address"
        },
        {
          "internalType": "address",
          "name": "operator",
          "type": "address"
        }
      ],
      "name": "isApprovedForAll",
      "outputs": [
        {
          "internalType": "bool",
          "name": "",
          "type": "bool"
        }
      ],
      "stateMutability": "view",
      "type": "function"
    },
    {
      "inputs": [],
      "name": "name",
      "outputs": [
        {
          "internalType": "string",
          "name": "",
          "type": "string"
        }
      ],
      "stateMutability": "view",
      "type": "function"
    },
    {
      "inputs": [],
      "name": "nftMint",
      "outputs": [],
      "stateMutability": "nonpayable",
      "type": "function"
    },
    {
      "inputs": [
        {
          "internalType": "uint256",
          "name": "tokenId",
          "type": "uint256"
        }
      ],
      "name": "ownerOf",
      "outputs": [
        {
          "internalType": "address",
          "name": "",
          "type": "address"
        }
      ],
      "stateMutability": "view",
      "type": "function"
    },
    {
      "inputs": [
        {
          "internalType": "address",
          "name": "from",
          "type": "address"
        },
        {
          "internalType": "address",
          "name": "to",
          "type": "address"
        },
        {
          "internalType": "uint256",
          "name": "tokenId",
          "type": "uint256"
        }
      ],
      "name": "safeTransferFrom",
      "outputs": [],
      "stateMutability": "nonpayable",
      "type": "function"
    },
    {
      "inputs": [
        {
          "internalType": "address",
          "name": "from",
          "type": "address"
        },
        {
          "internalType": "address",
          "name": "to",
          "type": "address"
        },
        {
          "internalType": "uint256",
          "name": "tokenId",
          "type": "uint256"
        },
        {
          "internalType": "bytes",
          "name": "data",
          "type": "bytes"
        }
      ],
      "name": "safeTransferFrom",
      "outputs": [],
      "stateMutability": "nonpayable",
      "type": "function"
    },
    {
      "inputs": [
        {
          "internalType": "address",
          "name": "operator",
          "type": "address"
        },
        {
          "internalType": "bool",
          "name": "approved",
          "type": "bool"
        }
      ],
      "name": "setApprovalForAll",
      "outputs": [],
      "stateMutability": "nonpayable",
      "type": "function"
    },
    {
      "inputs": [
        {
          "internalType": "bytes4",
          "name": "interfaceId",
          "type": "bytes4"
        }
      ],
      "name": "supportsInterface",
      "outputs": [
        {
          "internalType": "bool",
          "name": "",
          "type": "bool"
        }
      ],
      "stateMutability": "view",
      "type": "function"
    },
    {
      "inputs": [],
      "name": "symbol",
      "outputs": [
        {
          "internalType": "string",
          "name": "",
          "type": "string"
        }
      ],
      "stateMutability": "view",
      "type": "function"
    },
    {
      "inputs": [
        {
          "internalType": "uint256",
          "name": "index",
          "type": "uint256"
        }
      ],
      "name": "tokenByIndex",
      "outputs": [
        {
          "internalType": "uint256",
          "name": "",
          "type": "uint256"
        }
      ],
      "stateMutability": "view",
      "type": "function"
    },
    {
      "inputs": [
        {
          "internalType": "address",
          "name": "owner",
          "type": "address"
        },
        {
          "internalType": "uint256",
          "name": "index",
          "type": "uint256"
        }
      ],
      "name": "tokenOfOwnerByIndex",
      "outputs": [
        {
          "internalType": "uint256",
          "name": "",
          "type": "uint256"
        }
      ],
      "stateMutability": "view",
      "type": "function"
    },
    {
      "inputs": [
        {
          "internalType": "uint256",
          "name": "tokenId",
          "type": "uint256"
        }
      ],
      "name": "tokenURI",
      "outputs": [
        {
          "internalType": "string",
          "name": "",
          "type": "string"
        }
      ],
      "stateMutability": "view",
      "type": "function"
    },
    {
      "inputs": [],
      "name": "totalSupply",
      "outputs": [
        {
          "internalType": "uint256",
          "name": "",
          "type": "uint256"
        }
      ],
      "stateMutability": "view",
      "type": "function"
    },
    {
      "inputs": [
        {
          "internalType": "address",
          "name": "from",
          "type": "address"
        },
        {
          "internalType": "address",
          "name": "to",
          "type": "address"
        },
        {
          "internalType": "uint256",
          "name": "tokenId",
          "type": "uint256"
        }
      ],
      "name": "transferFrom",
      "outputs": [],
      "stateMutability": "nonpayable",
      "type": "function"
    }
  ],
  "bytecode": "0x60806040526040518061014001604052806040518060400160405280600381526020017f726564000000000000000000000000000000000000000000000000000000000081525081526020016040518060400160405280600681526020017f6f72616e6765000000000000000000000000000000000000000000000000000081525081526020016040518060400160405280600681526020017f79656c6c6f77000000000000000000000000000000000000000000000000000081525081526020016040518060400160405280600481526020017f676f6c640000000000000000000000000000000000000000000000000000000081525081526020016040518060400160405280600581526020017f62726f776e00000000000000000000000000000000000000000000000000000081525081526020016040518060400160405280600481526020017f626c75650000000000000000000000000000000000000000000000000000000081525081526020016040518060400160405280600681526020017f707572706c65000000000000000000000000000000000000000000000000000081525081526020016040518060400160405280600581526020017f677265656e00000000000000000000000000000000000000000000000000000081525081526020016040518060400160405280600481526020017f677261790000000000000000000000000000000000000000000000000000000081525081526020016040518060400160405280600581526020017f626c61636b000000000000000000000000000000000000000000000000000000815250815250600c90600a6200026e92919062000323565b503480156200027c57600080fd5b506040518060400160405280600681526020017f4361744e465400000000000000000000000000000000000000000000000000008152506040518060400160405280600381526020017f43415400000000000000000000000000000000000000000000000000000000008152508160009080519060200190620003019291906200038a565b5080600190805190602001906200031a9291906200038a565b5050506200050d565b82805482825590600052602060002090810192821562000377579160200282015b8281111562000376578251829080519060200190620003659291906200038a565b509160200191906001019062000344565b5b5090506200038691906200041b565b5090565b8280546200039890620004d7565b90600052602060002090601f016020900481019282620003bc576000855562000408565b82601f10620003d757805160ff191683800117855562000408565b8280016001018555821562000408579182015b8281111562000407578251825591602001919060010190620003ea565b5b50905062000417919062000443565b5090565b5b808211156200043f576000818162000435919062000462565b506001016200041c565b5090565b5b808211156200045e57600081600090555060010162000444565b5090565b5080546200047090620004d7565b6000825580601f10620004845750620004a5565b601f016020900490600052602060002090810190620004a4919062000443565b5b50565b7f4e487b7100000000000000000000000000000000000000000000000000000000600052602260045260246000fd5b60006002820490506001821680620004f057607f821691505b60208210811415620005075762000506620004a8565b5b50919050565b6147f8806200051d6000396000f3fe608060405234801561001057600080fd5b50600436106101165760003560e01c80636352211e116100a2578063a22cb46511610071578063a22cb465146102f3578063b88d4fde1461030f578063bb9a0b051461032b578063c87b56dd14610349578063e985e9c51461037957610116565b80636352211e1461026b57806370a082311461029b578063719414b4146102cb57806395d89b41146102d557610116565b806318160ddd116100e957806318160ddd146101b557806323b872dd146101d35780632f745c59146101ef57806342842e0e1461021f5780634f6ccce71461023b57610116565b806301ffc9a71461011b57806306fdde031461014b578063081812fc14610169578063095ea7b314610199575b600080fd5b610135600480360381019061013091906126ad565b6103a9565b60405161014291906126f5565b60405180910390f35b6101536103bb565b60405161016091906127a9565b60405180910390f35b610183600480360381019061017e9190612801565b61044d565b604051610190919061286f565b60405180910390f35b6101b360048036038101906101ae91906128b6565b610493565b005b6101bd6105ab565b6040516101ca9190612905565b60405180910390f35b6101ed60048036038101906101e89190612920565b6105b8565b005b610209600480360381019061020491906128b6565b610618565b6040516102169190612905565b60405180910390f35b61023960048036038101906102349190612920565b6106bd565b005b61025560048036038101906102509190612801565b6106dd565b6040516102629190612905565b60405180910390f35b61028560048036038101906102809190612801565b61074e565b604051610292919061286f565b60405180910390f35b6102b560048036038101906102b09190612973565b610800565b6040516102c29190612905565b60405180910390f35b6102d36108b8565b005b6102dd610974565b6040516102ea91906127a9565b60405180910390f35b61030d600480360381019061030891906129cc565b610a06565b005b61032960048036038101906103249190612b41565b610a1c565b005b610333610a7e565b6040516103409190612905565b60405180910390f35b610363600480360381019061035e9190612801565b610a8e565b60405161037091906127a9565b60405180910390f35b610393600480360381019061038e9190612bc4565b610aa0565b6040516103a091906126f5565b60405180910390f35b60006103b482610b34565b9050919050565b6060600080546103ca90612c33565b80601f01602080910402602001604051908101604052809291908181526020018280546103f690612c33565b80156104435780601f1061041857610100808354040283529160200191610443565b820191906000526020600020905b81548152906001019060200180831161042657829003601f168201915b5050505050905090565b600061045882610bae565b6004600083815260200190815260200160002060009054906101000a900473ffffffffffffffffffffffffffffffffffffffff169050919050565b600061049e8261074e565b90508073ffffffffffffffffffffffffffffffffffffffff168373ffffffffffffffffffffffffffffffffffffffff16141561050f576040517f08c379a000000000000000000000000000000000000000000000000000000000815260040161050690612cd7565b60405180910390fd5b8073ffffffffffffffffffffffffffffffffffffffff1661052e610bf9565b73ffffffffffffffffffffffffffffffffffffffff16148061055d575061055c81610557610bf9565b610aa0565b5b61059c576040517f08c379a000000000000000000000000000000000000000000000000000000000815260040161059390612d69565b60405180910390fd5b6105a68383610c01565b505050565b6000600980549050905090565b6105c96105c3610bf9565b82610cba565b610608576040517f08c379a00000000000000000000000000000000000000000000000000000000081526004016105ff90612dfb565b60405180910390fd5b610613838383610d4f565b505050565b600061062383610800565b8210610664576040517f08c379a000000000000000000000000000000000000000000000000000000000815260040161065b90612e8d565b60405180910390fd5b600760008473ffffffffffffffffffffffffffffffffffffffff1673ffffffffffffffffffffffffffffffffffffffff168152602001908152602001600020600083815260200190815260200160002054905092915050565b6106d883838360405180602001604052806000815250610a1c565b505050565b60006106e76105ab565b8210610728576040517f08c379a000000000000000000000000000000000000000000000000000000000815260040161071f90612f1f565b60405180910390fd5b6009828154811061073c5761073b612f3f565b5b90600052602060002001549050919050565b6000806002600084815260200190815260200160002060009054906101000a900473ffffffffffffffffffffffffffffffffffffffff169050600073ffffffffffffffffffffffffffffffffffffffff168173ffffffffffffffffffffffffffffffffffffffff1614156107f7576040517f08c379a00000000000000000000000000000000000000000000000000000000081526004016107ee90612fba565b60405180910390fd5b80915050919050565b60008073ffffffffffffffffffffffffffffffffffffffff168273ffffffffffffffffffffffffffffffffffffffff161415610871576040517f08c379a00000000000000000000000000000000000000000000000000000000081526004016108689061304c565b60405180910390fd5b600360008373ffffffffffffffffffffffffffffffffffffffff1673ffffffffffffffffffffffffffffffffffffffff168152602001908152602001600020549050919050565b6108c2600b610fb6565b60006108ce600b610fcc565b90506108da3382610fda565b60006108e582610ff8565b905060006108f2826112db565b905060006108ff8261130c565b60405160200161090f91906130f4565b604051602081830303815290604052905061092a8482611470565b833373ffffffffffffffffffffffffffffffffffffffff167f4cc0a9c4a99ddc700de1af2c9f916a7cbfdb71f14801ccff94061ad1ef8a804060405160405180910390a350505050565b60606001805461098390612c33565b80601f01602080910402602001604051908101604052809291908181526020018280546109af90612c33565b80156109fc5780601f106109d1576101008083540402835291602001916109fc565b820191906000526020600020905b8154815290600101906020018083116109df57829003601f168201915b5050505050905090565b610a18610a11610bf9565b83836114e4565b5050565b610a2d610a27610bf9565b83610cba565b610a6c576040517f08c379a0000000000000000000000000000000000000000000000000000000008152600401610a6390612dfb565b60405180910390fd5b610a7884848484611651565b50505050565b6000610a8933610800565b905090565b6060610a99826116ad565b9050919050565b6000600560008473ffffffffffffffffffffffffffffffffffffffff1673ffffffffffffffffffffffffffffffffffffffff16815260200190815260200160002060008373ffffffffffffffffffffffffffffffffffffffff1673ffffffffffffffffffffffffffffffffffffffff16815260200190815260200160002060009054906101000a900460ff16905092915050565b60007f780e9d63000000000000000000000000000000000000000000000000000000007bffffffffffffffffffffffffffffffffffffffffffffffffffffffff1916827bffffffffffffffffffffffffffffffffffffffffffffffffffffffff19161480610ba75750610ba6826117c0565b5b9050919050565b610bb7816118a2565b610bf6576040517f08c379a0000000000000000000000000000000000000000000000000000000008152600401610bed90612fba565b60405180910390fd5b50565b600033905090565b816004600083815260200190815260200160002060006101000a81548173ffffffffffffffffffffffffffffffffffffffff021916908373ffffffffffffffffffffffffffffffffffffffff160217905550808273ffffffffffffffffffffffffffffffffffffffff16610c748361074e565b73ffffffffffffffffffffffffffffffffffffffff167f8c5be1e5ebec7d5bd14f71427d1e84f3dd0314c0f7b2291e5b200ac8c7c3b92560405160405180910390a45050565b600080610cc68361074e565b90508073ffffffffffffffffffffffffffffffffffffffff168473ffffffffffffffffffffffffffffffffffffffff161480610d085750610d078185610aa0565b5b80610d4657508373ffffffffffffffffffffffffffffffffffffffff16610d2e8461044d565b73ffffffffffffffffffffffffffffffffffffffff16145b91505092915050565b8273ffffffffffffffffffffffffffffffffffffffff16610d6f8261074e565b73ffffffffffffffffffffffffffffffffffffffff1614610dc5576040517f08c379a0000000000000000000000000000000000000000000000000000000008152600401610dbc90613188565b60405180910390fd5b600073ffffffffffffffffffffffffffffffffffffffff168273ffffffffffffffffffffffffffffffffffffffff161415610e35576040517f08c379a0000000000000000000000000000000000000000000000000000000008152600401610e2c9061321a565b60405180910390fd5b610e4083838361190e565b610e4b600082610c01565b6001600360008573ffffffffffffffffffffffffffffffffffffffff1673ffffffffffffffffffffffffffffffffffffffff1681526020019081526020016000206000828254610e9b9190613269565b925050819055506001600360008473ffffffffffffffffffffffffffffffffffffffff1673ffffffffffffffffffffffffffffffffffffffff1681526020019081526020016000206000828254610ef2919061329d565b92505081905550816002600083815260200190815260200160002060006101000a81548173ffffffffffffffffffffffffffffffffffffffff021916908373ffffffffffffffffffffffffffffffffffffffff160217905550808273ffffffffffffffffffffffffffffffffffffffff168473ffffffffffffffffffffffffffffffffffffffff167fddf252ad1be2c89b69c2b068fc378daa952ba7f163c4a11628f55a4df523b3ef60405160405180910390a4610fb183838361191e565b505050565b6001816000016000828254019250508190555050565b600081600001549050919050565b610ff4828260405180602001604052806000815250611923565b5050565b60606000600c80549050838061100d906132f3565b94504260405160200161102192919061335d565b6040516020818303038152906040528051906020012060001c61104491906133b8565b90506000600c805490508480611059906132f3565b95504260405160200161106d92919061335d565b6040516020818303038152906040528051906020012060001c61109091906133b8565b90506000600c8054905085806110a5906132f3565b9650426040516020016110b992919061335d565b6040516020818303038152906040528051906020012060001c6110dc91906133b8565b90506000600c8054905086806110f1906132f3565b97504260405160200161110592919061335d565b6040516020818303038152906040528051906020012060001c61112891906133b8565b90506000600c80549050878061113d906132f3565b98504260405160200161115192919061335d565b6040516020818303038152906040528051906020012060001c61117491906133b8565b90506000611185868686868661197e565b9050600061119287611adf565b9050600c87815481106111a8576111a7612f3f565b5b90600052602060002001600c88815481106111c6576111c5612f3f565b5b90600052602060002001600c89815481106111e4576111e3612f3f565b5b90600052602060002001600c8a8154811061120257611201612f3f565b5b90600052602060002001600c8b815481106112205761121f612f3f565b5b90600052602060002001600c8c8154811061123e5761123d612f3f565b5b90600052602060002001600c8d8154811061125c5761125b612f3f565b5b90600052602060002001600c8e8154811061127a57611279612f3f565b5b90600052602060002001600c8f8154811061129857611297612f3f565b5b906000526020600020018a8a6040516020016112be9b9a9998979695949392919061393d565b604051602081830303815290604052975050505050505050919050565b60606112e68261130c565b6040516020016112f69190613b02565b6040516020818303038152906040529050919050565b606060008251141561132f5760405180602001604052806000815250905061146b565b6000604051806060016040528060408152602001614783604091399050600060036002855161135e919061329d565b6113689190613b2f565b60046113749190613b60565b67ffffffffffffffff81111561138d5761138c612a16565b5b6040519080825280601f01601f1916602001820160405280156113bf5781602001600182028036833780820191505090505b509050600182016020820185865187015b8082101561142b576003820191508151603f8160121c168501518453600184019350603f81600c1c168501518453600184019350603f8160061c168501518453600184019350603f81168501518453600184019350506113d0565b5050600386510660018114611447576002811461145a57611462565b603d6001830353603d6002830353611462565b603d60018303535b50505080925050505b919050565b611479826118a2565b6114b8576040517f08c379a00000000000000000000000000000000000000000000000000000000081526004016114af90613c2c565b60405180910390fd5b806006600084815260200190815260200160002090805190602001906114df92919061259e565b505050565b8173ffffffffffffffffffffffffffffffffffffffff168373ffffffffffffffffffffffffffffffffffffffff161415611553576040517f08c379a000000000000000000000000000000000000000000000000000000000815260040161154a90613c98565b60405180910390fd5b80600560008573ffffffffffffffffffffffffffffffffffffffff1673ffffffffffffffffffffffffffffffffffffffff16815260200190815260200160002060008473ffffffffffffffffffffffffffffffffffffffff1673ffffffffffffffffffffffffffffffffffffffff16815260200190815260200160002060006101000a81548160ff0219169083151502179055508173ffffffffffffffffffffffffffffffffffffffff168373ffffffffffffffffffffffffffffffffffffffff167f17307eab39ab6107e8899845ad3d59bd9653f200f220920489ca2b5937696c318360405161164491906126f5565b60405180910390a3505050565b61165c848484610d4f565b61166884848484611ba1565b6116a7576040517f08c379a000000000000000000000000000000000000000000000000000000000815260040161169e90613d2a565b60405180910390fd5b50505050565b60606116b882610bae565b60006006600084815260200190815260200160002080546116d890612c33565b80601f016020809104026020016040519081016040528092919081815260200182805461170490612c33565b80156117515780601f1061172657610100808354040283529160200191611751565b820191906000526020600020905b81548152906001019060200180831161173457829003601f168201915b505050505090506000611762611d38565b90506000815114156117785781925050506117bb565b6000825111156117ad578082604051602001611795929190613d4a565b604051602081830303815290604052925050506117bb565b6117b684611d4f565b925050505b919050565b60007f80ac58cd000000000000000000000000000000000000000000000000000000007bffffffffffffffffffffffffffffffffffffffffffffffffffffffff1916827bffffffffffffffffffffffffffffffffffffffffffffffffffffffff1916148061188b57507f5b5e139f000000000000000000000000000000000000000000000000000000007bffffffffffffffffffffffffffffffffffffffffffffffffffffffff1916827bffffffffffffffffffffffffffffffffffffffffffffffffffffffff1916145b8061189b575061189a82611db7565b5b9050919050565b60008073ffffffffffffffffffffffffffffffffffffffff166002600084815260200190815260200160002060009054906101000a900473ffffffffffffffffffffffffffffffffffffffff1673ffffffffffffffffffffffffffffffffffffffff1614159050919050565b611919838383611e21565b505050565b505050565b61192d8383611f35565b61193a6000848484611ba1565b611979576040517f08c379a000000000000000000000000000000000000000000000000000000000815260040161197090613d2a565b60405180910390fd5b505050565b6060600c868154811061199457611993612f3f565b5b90600052602060002001600c87815481106119b2576119b1612f3f565b5b90600052602060002001600c88815481106119d0576119cf612f3f565b5b90600052602060002001600c89815481106119ee576119ed612f3f565b5b90600052602060002001600c8a81548110611a0c57611a0b612f3f565b5b90600052602060002001600c8b81548110611a2a57611a29612f3f565b5b90600052602060002001600c8b81548110611a4857611a47612f3f565b5b90600052602060002001600c8b81548110611a6657611a65612f3f565b5b90600052602060002001600c8b81548110611a8457611a83612f3f565b5b90600052602060002001600c8b81548110611aa257611aa1612f3f565b5b90600052602060002001604051602001611ac59a999897969594939291906141e2565b604051602081830303815290604052905095945050505050565b6060600c8281548110611af557611af4612f3f565b5b90600052602060002001600c8381548110611b1357611b12612f3f565b5b90600052602060002001600c8481548110611b3157611b30612f3f565b5b90600052602060002001600c8581548110611b4f57611b4e612f3f565b5b90600052602060002001600c8681548110611b6d57611b6c612f3f565b5b90600052602060002001604051602001611b8b959493929190614516565b6040516020818303038152906040529050919050565b6000611bc28473ffffffffffffffffffffffffffffffffffffffff1661210f565b15611d2b578373ffffffffffffffffffffffffffffffffffffffff1663150b7a02611beb610bf9565b8786866040518563ffffffff1660e01b8152600401611c0d94939291906145ed565b602060405180830381600087803b158015611c2757600080fd5b505af1925050508015611c5857506040513d601f19601f82011682018060405250810190611c55919061464e565b60015b611cdb573d8060008114611c88576040519150601f19603f3d011682016040523d82523d6000602084013e611c8d565b606091505b50600081511415611cd3576040517f08c379a0000000000000000000000000000000000000000000000000000000008152600401611cca90613d2a565b60405180910390fd5b805181602001fd5b63150b7a0260e01b7bffffffffffffffffffffffffffffffffffffffffffffffffffffffff1916817bffffffffffffffffffffffffffffffffffffffffffffffffffffffff191614915050611d30565b600190505b949350505050565b606060405180602001604052806000815250905090565b6060611d5a82610bae565b6000611d64611d38565b90506000815111611d845760405180602001604052806000815250611daf565b80611d8e84612132565b604051602001611d9f929190613d4a565b6040516020818303038152906040525b915050919050565b60007f01ffc9a7000000000000000000000000000000000000000000000000000000007bffffffffffffffffffffffffffffffffffffffffffffffffffffffff1916827bffffffffffffffffffffffffffffffffffffffffffffffffffffffff1916149050919050565b611e2c838383612293565b600073ffffffffffffffffffffffffffffffffffffffff168373ffffffffffffffffffffffffffffffffffffffff161415611e6f57611e6a81612298565b611eae565b8173ffffffffffffffffffffffffffffffffffffffff168373ffffffffffffffffffffffffffffffffffffffff1614611ead57611eac83826122e1565b5b5b600073ffffffffffffffffffffffffffffffffffffffff168273ffffffffffffffffffffffffffffffffffffffff161415611ef157611eec8161244e565b611f30565b8273ffffffffffffffffffffffffffffffffffffffff168273ffffffffffffffffffffffffffffffffffffffff1614611f2f57611f2e828261251f565b5b5b505050565b600073ffffffffffffffffffffffffffffffffffffffff168273ffffffffffffffffffffffffffffffffffffffff161415611fa5576040517f08c379a0000000000000000000000000000000000000000000000000000000008152600401611f9c906146c7565b60405180910390fd5b611fae816118a2565b15611fee576040517f08c379a0000000000000000000000000000000000000000000000000000000008152600401611fe590614733565b60405180910390fd5b611ffa6000838361190e565b6001600360008473ffffffffffffffffffffffffffffffffffffffff1673ffffffffffffffffffffffffffffffffffffffff168152602001908152602001600020600082825461204a919061329d565b92505081905550816002600083815260200190815260200160002060006101000a81548173ffffffffffffffffffffffffffffffffffffffff021916908373ffffffffffffffffffffffffffffffffffffffff160217905550808273ffffffffffffffffffffffffffffffffffffffff16600073ffffffffffffffffffffffffffffffffffffffff167fddf252ad1be2c89b69c2b068fc378daa952ba7f163c4a11628f55a4df523b3ef60405160405180910390a461210b6000838361191e565b5050565b6000808273ffffffffffffffffffffffffffffffffffffffff163b119050919050565b6060600082141561217a576040518060400160405280600181526020017f3000000000000000000000000000000000000000000000000000000000000000815250905061228e565b600082905060005b600082146121ac578080612195906132f3565b915050600a826121a59190613b2f565b9150612182565b60008167ffffffffffffffff8111156121c8576121c7612a16565b5b6040519080825280601f01601f1916602001820160405280156121fa5781602001600182028036833780820191505090505b5090505b60008514612287576001826122139190613269565b9150600a8561222291906133b8565b603061222e919061329d565b60f81b81838151811061224457612243612f3f565b5b60200101907effffffffffffffffffffffffffffffffffffffffffffffffffffffffffffff1916908160001a905350600a856122809190613b2f565b94506121fe565b8093505050505b919050565b505050565b600980549050600a600083815260200190815260200160002081905550600981908060018154018082558091505060019003906000526020600020016000909190919091505550565b600060016122ee84610800565b6122f89190613269565b90506000600860008481526020019081526020016000205490508181146123dd576000600760008673ffffffffffffffffffffffffffffffffffffffff1673ffffffffffffffffffffffffffffffffffffffff168152602001908152602001600020600084815260200190815260200160002054905080600760008773ffffffffffffffffffffffffffffffffffffffff1673ffffffffffffffffffffffffffffffffffffffff168152602001908152602001600020600084815260200190815260200160002081905550816008600083815260200190815260200160002081905550505b6008600084815260200190815260200160002060009055600760008573ffffffffffffffffffffffffffffffffffffffff1673ffffffffffffffffffffffffffffffffffffffff16815260200190815260200160002060008381526020019081526020016000206000905550505050565b600060016009805490506124629190613269565b90506000600a600084815260200190815260200160002054905060006009838154811061249257612491612f3f565b5b9060005260206000200154905080600983815481106124b4576124b3612f3f565b5b906000526020600020018190555081600a600083815260200190815260200160002081905550600a600085815260200190815260200160002060009055600980548061250357612502614753565b5b6001900381819060005260206000200160009055905550505050565b600061252a83610800565b905081600760008573ffffffffffffffffffffffffffffffffffffffff1673ffffffffffffffffffffffffffffffffffffffff168152602001908152602001600020600083815260200190815260200160002081905550806008600084815260200190815260200160002081905550505050565b8280546125aa90612c33565b90600052602060002090601f0160209004810192826125cc5760008555612613565b82601f106125e557805160ff1916838001178555612613565b82800160010185558215612613579182015b828111156126125782518255916020019190600101906125f7565b5b5090506126209190612624565b5090565b5b8082111561263d576000816000905550600101612625565b5090565b6000604051905090565b600080fd5b600080fd5b60007fffffffff0000000000000000000000000000000000000000000000000000000082169050919050565b61268a81612655565b811461269557600080fd5b50565b6000813590506126a781612681565b92915050565b6000602082840312156126c3576126c261264b565b5b60006126d184828501612698565b91505092915050565b60008115159050919050565b6126ef816126da565b82525050565b600060208201905061270a60008301846126e6565b92915050565b600081519050919050565b600082825260208201905092915050565b60005b8381101561274a57808201518184015260208101905061272f565b83811115612759576000848401525b50505050565b6000601f19601f8301169050919050565b600061277b82612710565b612785818561271b565b935061279581856020860161272c565b61279e8161275f565b840191505092915050565b600060208201905081810360008301526127c38184612770565b905092915050565b6000819050919050565b6127de816127cb565b81146127e957600080fd5b50565b6000813590506127fb816127d5565b92915050565b6000602082840312156128175761281661264b565b5b6000612825848285016127ec565b91505092915050565b600073ffffffffffffffffffffffffffffffffffffffff82169050919050565b60006128598261282e565b9050919050565b6128698161284e565b82525050565b60006020820190506128846000830184612860565b92915050565b6128938161284e565b811461289e57600080fd5b50565b6000813590506128b08161288a565b92915050565b600080604083850312156128cd576128cc61264b565b5b60006128db858286016128a1565b92505060206128ec858286016127ec565b9150509250929050565b6128ff816127cb565b82525050565b600060208201905061291a60008301846128f6565b92915050565b6000806000606084860312156129395761293861264b565b5b6000612947868287016128a1565b9350506020612958868287016128a1565b9250506040612969868287016127ec565b9150509250925092565b6000602082840312156129895761298861264b565b5b6000612997848285016128a1565b91505092915050565b6129a9816126da565b81146129b457600080fd5b50565b6000813590506129c6816129a0565b92915050565b600080604083850312156129e3576129e261264b565b5b60006129f1858286016128a1565b9250506020612a02858286016129b7565b9150509250929050565b600080fd5b600080fd5b7f4e487b7100000000000000000000000000000000000000000000000000000000600052604160045260246000fd5b612a4e8261275f565b810181811067ffffffffffffffff82111715612a6d57612a6c612a16565b5b80604052505050565b6000612a80612641565b9050612a8c8282612a45565b919050565b600067ffffffffffffffff821115612aac57612aab612a16565b5b612ab58261275f565b9050602081019050919050565b82818337600083830152505050565b6000612ae4612adf84612a91565b612a76565b905082815260208101848484011115612b0057612aff612a11565b5b612b0b848285612ac2565b509392505050565b600082601f830112612b2857612b27612a0c565b5b8135612b38848260208601612ad1565b91505092915050565b60008060008060808587031215612b5b57612b5a61264b565b5b6000612b69878288016128a1565b9450506020612b7a878288016128a1565b9350506040612b8b878288016127ec565b925050606085013567ffffffffffffffff811115612bac57612bab612650565b5b612bb887828801612b13565b91505092959194509250565b60008060408385031215612bdb57612bda61264b565b5b6000612be9858286016128a1565b9250506020612bfa858286016128a1565b9150509250929050565b7f4e487b7100000000000000000000000000000000000000000000000000000000600052602260045260246000fd5b60006002820490506001821680612c4b57607f821691505b60208210811415612c5f57612c5e612c04565b5b50919050565b7f4552433732313a20617070726f76616c20746f2063757272656e74206f776e6560008201527f7200000000000000000000000000000000000000000000000000000000000000602082015250565b6000612cc160218361271b565b9150612ccc82612c65565b604082019050919050565b60006020820190508181036000830152612cf081612cb4565b9050919050565b7f4552433732313a20617070726f76652063616c6c6572206973206e6f7420746f60008201527f6b656e206f776e6572206e6f7220617070726f76656420666f7220616c6c0000602082015250565b6000612d53603e8361271b565b9150612d5e82612cf7565b604082019050919050565b60006020820190508181036000830152612d8281612d46565b9050919050565b7f4552433732313a2063616c6c6572206973206e6f7420746f6b656e206f776e6560008201527f72206e6f7220617070726f766564000000000000000000000000000000000000602082015250565b6000612de5602e8361271b565b9150612df082612d89565b604082019050919050565b60006020820190508181036000830152612e1481612dd8565b9050919050565b7f455243373231456e756d657261626c653a206f776e657220696e646578206f7560008201527f74206f6620626f756e6473000000000000000000000000000000000000000000602082015250565b6000612e77602b8361271b565b9150612e8282612e1b565b604082019050919050565b60006020820190508181036000830152612ea681612e6a565b9050919050565b7f455243373231456e756d657261626c653a20676c6f62616c20696e646578206f60008201527f7574206f6620626f756e64730000000000000000000000000000000000000000602082015250565b6000612f09602c8361271b565b9150612f1482612ead565b604082019050919050565b60006020820190508181036000830152612f3881612efc565b9050919050565b7f4e487b7100000000000000000000000000000000000000000000000000000000600052603260045260246000fd5b7f4552433732313a20696e76616c696420746f6b656e2049440000000000000000600082015250565b6000612fa460188361271b565b9150612faf82612f6e565b602082019050919050565b60006020820190508181036000830152612fd381612f97565b9050919050565b7f4552433732313a2061646472657373207a65726f206973206e6f74206120766160008201527f6c6964206f776e65720000000000000000000000000000000000000000000000602082015250565b600061303660298361271b565b915061304182612fda565b604082019050919050565b6000602082019050818103600083015261306581613029565b9050919050565b600081905092915050565b7f646174613a6170706c69636174696f6e2f6a736f6e3b6261736536342c000000600082015250565b60006130ad601d8361306c565b91506130b882613077565b601d82019050919050565b60006130ce82612710565b6130d8818561306c565b93506130e881856020860161272c565b80840191505092915050565b60006130ff826130a0565b915061310b82846130c3565b915081905092915050565b7f4552433732313a207472616e736665722066726f6d20696e636f72726563742060008201527f6f776e6572000000000000000000000000000000000000000000000000000000602082015250565b600061317260258361271b565b915061317d82613116565b604082019050919050565b600060208201905081810360008301526131a181613165565b9050919050565b7f4552433732313a207472616e7366657220746f20746865207a65726f2061646460008201527f7265737300000000000000000000000000000000000000000000000000000000602082015250565b600061320460248361271b565b915061320f826131a8565b604082019050919050565b60006020820190508181036000830152613233816131f7565b9050919050565b7f4e487b7100000000000000000000000000000000000000000000000000000000600052601160045260246000fd5b6000613274826127cb565b915061327f836127cb565b9250828210156132925761329161323a565b5b828203905092915050565b60006132a8826127cb565b91506132b3836127cb565b9250827fffffffffffffffffffffffffffffffffffffffffffffffffffffffffffffffff038211156132e8576132e761323a565b5b828201905092915050565b60006132fe826127cb565b91507fffffffffffffffffffffffffffffffffffffffffffffffffffffffffffffffff8214156133315761333061323a565b5b600182019050919050565b6000819050919050565b613357613352826127cb565b61333c565b82525050565b60006133698285613346565b6020820191506133798284613346565b6020820191508190509392505050565b7f4e487b7100000000000000000000000000000000000000000000000000000000600052601260045260246000fd5b60006133c3826127cb565b91506133ce836127cb565b9250826133de576133dd613389565b5b828206905092915050565b7f3c7376672077696474683d2233323022206865696768743d223332302220766960008201527f6577426f783d223020302033323020333230222066696c6c3d226e6f6e65222060208201527f786d6c6e733d22687474703a2f2f7777772e77332e6f72672f323030302f737660408201527f67223e3c726563742066696c6c3d220000000000000000000000000000000000606082015250565b6000613491606f8361306c565b915061349c826133e9565b606f82019050919050565b60008190508160005260206000209050919050565b600081546134c981612c33565b6134d3818661306c565b945060018216600081146134ee57600181146134ff57613532565b60ff19831686528186019350613532565b613508856134a7565b60005b8381101561352a5781548189015260018201915060208101905061350b565b838801955050505b50505092915050565b7f222077696474683d22323022206865696768743d2238302220783d223230222060008201527f793d22383022202f3e3c726563742066696c6c3d220000000000000000000000602082015250565b600061359760358361306c565b91506135a28261353b565b603582019050919050565b7f222077696474683d22323022206865696768743d2236302220783d223430222060008201527f793d22343022202f3e3c726563742066696c6c3d220000000000000000000000602082015250565b600061360960358361306c565b9150613614826135ad565b603582019050919050565b7f222077696474683d22323022206865696768743d2236302220783d223630222060008201527f793d22323022202f3e3c726563742066696c6c3d220000000000000000000000602082015250565b600061367b60358361306c565b91506136868261361f565b603582019050919050565b7f222077696474683d22323022206865696768743d2234302220783d223830222060008201527f793d22343022202f3e3c726563742066696c6c3d220000000000000000000000602082015250565b60006136ed60358361306c565b91506136f882613691565b603582019050919050565b7f222077696474683d22323022206865696768743d2232302220783d223130302260008201527f20793d22363022202f3e3c726563742066696c6c3d2200000000000000000000602082015250565b600061375f60368361306c565b915061376a82613703565b603682019050919050565b7f222077696474683d22343022206865696768743d223130302220783d2231323060008201527f2220793d22363022202f3e3c726563742066696c6c3d22000000000000000000602082015250565b60006137d160378361306c565b91506137dc82613775565b603782019050919050565b7f222077696474683d22323022206865696768743d2234302220783d223136302260008201527f20793d22363022202f3e3c726563742066696c6c3d2200000000000000000000602082015250565b600061384360368361306c565b915061384e826137e7565b603682019050919050565b7f222077696474683d22323022206865696768743d2232302220783d223138302260008201527f20793d22363022202f3e3c726563742066696c6c3d2200000000000000000000602082015250565b60006138b560368361306c565b91506138c082613859565b603682019050919050565b7f222077696474683d22323022206865696768743d2234302220783d223230302260008201527f20793d22343022202f3e3c726563742066696c6c3d2200000000000000000000602082015250565b600061392760368361306c565b9150613932826138cb565b603682019050919050565b600061394882613484565b9150613954828e6134bc565b915061395f8261358a565b915061396b828d6134bc565b9150613976826135fc565b9150613982828c6134bc565b915061398d8261366e565b9150613999828b6134bc565b91506139a4826136e0565b91506139b0828a6134bc565b91506139bb82613752565b91506139c782896134bc565b91506139d2826137c4565b91506139de82886134bc565b91506139e982613836565b91506139f582876134bc565b9150613a00826138a8565b9150613a0c82866134bc565b9150613a178261391a565b9150613a2382856130c3565b9150613a2f82846130c3565b91508190509c9b505050505050505050505050565b7f7b22696d616765223a2022646174613a696d6167652f7376672b786d6c3b626160008201527f736536342c000000000000000000000000000000000000000000000000000000602082015250565b6000613aa060258361306c565b9150613aab82613a44565b602582019050919050565b7f227d000000000000000000000000000000000000000000000000000000000000600082015250565b6000613aec60028361306c565b9150613af782613ab6565b600282019050919050565b6000613b0d82613a93565b9150613b1982846130c3565b9150613b2482613adf565b915081905092915050565b6000613b3a826127cb565b9150613b45836127cb565b925082613b5557613b54613389565b5b828204905092915050565b6000613b6b826127cb565b9150613b76836127cb565b9250817fffffffffffffffffffffffffffffffffffffffffffffffffffffffffffffffff0483118215151615613baf57613bae61323a565b5b828202905092915050565b7f45524337323155524953746f726167653a2055524920736574206f66206e6f6e60008201527f6578697374656e7420746f6b656e000000000000000000000000000000000000602082015250565b6000613c16602e8361271b565b9150613c2182613bba565b604082019050919050565b60006020820190508181036000830152613c4581613c09565b9050919050565b7f4552433732313a20617070726f766520746f2063616c6c657200000000000000600082015250565b6000613c8260198361271b565b9150613c8d82613c4c565b602082019050919050565b60006020820190508181036000830152613cb181613c75565b9050919050565b7f4552433732313a207472616e7366657220746f206e6f6e20455243373231526560008201527f63656976657220696d706c656d656e7465720000000000000000000000000000602082015250565b6000613d1460328361271b565b9150613d1f82613cb8565b604082019050919050565b60006020820190508181036000830152613d4381613d07565b9050919050565b6000613d5682856130c3565b9150613d6282846130c3565b91508190509392505050565b7f222077696474683d22323022206865696768743d2236302220783d223232302260008201527f20793d22323022202f3e3c726563742066696c6c3d2200000000000000000000602082015250565b6000613dca60368361306c565b9150613dd582613d6e565b603682019050919050565b7f222077696474683d22323022206865696768743d223132302220783d2232343060008201527f2220793d22343022202f3e3c726563742066696c6c3d22000000000000000000602082015250565b6000613e3c60378361306c565b9150613e4782613de0565b603782019050919050565b7f222077696474683d22323022206865696768743d2238302220783d223236302260008201527f20793d22383022202f3e3c726563742066696c6c3d2200000000000000000000602082015250565b6000613eae60368361306c565b9150613eb982613e52565b603682019050919050565b7f222077696474683d2232363022206865696768743d2232302220783d2232302260008201527f20793d2231363022202f3e3c726563742066696c6c3d22000000000000000000602082015250565b6000613f2060378361306c565b9150613f2b82613ec4565b603782019050919050565b7f222077696474683d2232323022206865696768743d2232302220783d2234302260008201527f20793d2231383022202f3e3c726563742066696c6c3d22000000000000000000602082015250565b6000613f9260378361306c565b9150613f9d82613f36565b603782019050919050565b7f222077696474683d2231343022206865696768743d2232302220783d2238302260008201527f20793d2232303022202f3e3c726563742066696c6c3d22000000000000000000602082015250565b600061400460378361306c565b915061400f82613fa8565b603782019050919050565b7f222077696474683d22323022206865696768743d2234302220783d223630222060008201527f793d2231303022202f3e3c726563742066696c6c3d2200000000000000000000602082015250565b600061407660368361306c565b91506140818261401a565b603682019050919050565b7f222077696474683d22323022206865696768743d2234302220783d223138302260008201527f20793d2231303022202f3e3c726563742066696c6c3d22000000000000000000602082015250565b60006140e860378361306c565b91506140f38261408c565b603782019050919050565b7f222077696474683d2231303022206865696768743d2232302220783d2231303060008201527f2220793d2232323022202f3e3c726563742066696c6c3d220000000000000000602082015250565b600061415a60388361306c565b9150614165826140fe565b603882019050919050565b7f222077696474683d22323022206865696768743d2232302220783d223132302260008201527f20793d2232323022202f3e3c726563742066696c6c3d22000000000000000000602082015250565b60006141cc60378361306c565b91506141d782614170565b603782019050919050565b60006141ee828d6134bc565b91506141f982613dbd565b9150614205828c6134bc565b915061421082613e2f565b915061421c828b6134bc565b915061422782613ea1565b9150614233828a6134bc565b915061423e82613f13565b915061424a82896134bc565b915061425582613f85565b915061426182886134bc565b915061426c82613ff7565b915061427882876134bc565b915061428382614069565b915061428f82866134bc565b915061429a826140db565b91506142a682856134bc565b91506142b18261414d565b91506142bd82846134bc565b91506142c8826141bf565b91508190509b9a5050505050505050505050565b7f222077696474683d2231343022206865696768743d2234302220783d2231303060008201527f2220793d2232343022202f3e3c726563742066696c6c3d220000000000000000602082015250565b600061433860388361306c565b9150614343826142dc565b603882019050919050565b7f222077696474683d2231363022206865696768743d2232302220783d2238302260008201527f20793d2232383022202f3e3c726563742066696c6c3d22000000000000000000602082015250565b60006143aa60378361306c565b91506143b58261434e565b603782019050919050565b7f222077696474683d22343022206865696768743d2232302220783d223234302260008201527f20793d2232363022202f3e3c726563742066696c6c3d22000000000000000000602082015250565b600061441c60378361306c565b9150614427826143c0565b603782019050919050565b7f222077696474683d22343022206865696768743d2232302220783d223236302260008201527f20793d2232343022202f3e3c726563742066696c6c3d22000000000000000000602082015250565b600061448e60378361306c565b915061449982614432565b603782019050919050565b7f222077696474683d22323022206865696768743d2232302220783d223238302260008201527f20793d2232323022202f3e3c2f7376673e000000000000000000000000000000602082015250565b600061450060318361306c565b915061450b826144a4565b603182019050919050565b600061452282886134bc565b915061452d8261432b565b915061453982876134bc565b91506145448261439d565b915061455082866134bc565b915061455b8261440f565b915061456782856134bc565b915061457282614481565b915061457e82846134bc565b9150614589826144f3565b91508190509695505050505050565b600081519050919050565b600082825260208201905092915050565b60006145bf82614598565b6145c981856145a3565b93506145d981856020860161272c565b6145e28161275f565b840191505092915050565b60006080820190506146026000830187612860565b61460f6020830186612860565b61461c60408301856128f6565b818103606083015261462e81846145b4565b905095945050505050565b60008151905061464881612681565b92915050565b6000602082840312156146645761466361264b565b5b600061467284828501614639565b91505092915050565b7f4552433732313a206d696e7420746f20746865207a65726f2061646472657373600082015250565b60006146b160208361271b565b91506146bc8261467b565b602082019050919050565b600060208201905081810360008301526146e0816146a4565b9050919050565b7f4552433732313a20746f6b656e20616c7265616479206d696e74656400000000600082015250565b600061471d601c8361271b565b9150614728826146e7565b602082019050919050565b6000602082019050818103600083015261474c81614710565b9050919050565b7f4e487b7100000000000000000000000000000000000000000000000000000000600052603160045260246000fdfe4142434445464748494a4b4c4d4e4f505152535455565758595a6162636465666768696a6b6c6d6e6f707172737475767778797a303132333435363738392b2fa2646970667358221220512945881f783a5c4ff37528f6e5f3134cfcbb83a397b1949bc60a8e722682c164736f6c63430008090033",
  "linkReferences": {},
  "deployedLinkReferences": {}
}